{
  "address": "0xf06c59ADAf58b63913DeD8B8fe37a42BecfaEd88",
  "abi": [
    {
      "inputs": [
        {
          "internalType": "uint8[]",
          "name": "buffer",
          "type": "uint8[]"
        }
      ],
      "name": "append",
      "outputs": [],
      "stateMutability": "nonpayable",
      "type": "function"
    },
    {
      "inputs": [],
      "name": "getBytes",
      "outputs": [
        {
          "internalType": "bytes",
          "name": "",
          "type": "bytes"
        }
      ],
      "stateMutability": "view",
      "type": "function"
    },
    {
      "inputs": [],
      "name": "name",
      "outputs": [
        {
          "internalType": "string",
          "name": "",
          "type": "string"
        }
      ],
      "stateMutability": "view",
      "type": "function"
    },
    {
      "inputs": [
        {
          "internalType": "string",
          "name": "_name",
          "type": "string"
        }
      ],
      "name": "setName",
      "outputs": [],
      "stateMutability": "nonpayable",
      "type": "function"
    }
  ],
  "transactionHash": "0x2e970eaac5b05f080593c718d1e0e4aaafb5519fe8fe18c9745fc0106118ad57",
  "args": [],
  "numDeployments": 1,
  "solcInputHash": "4b08b83a292970167801c0d9d6845f14",
  "bytecode": "0x608060405234801561001057600080fd5b50610750806100206000396000f3fe608060405234801561001057600080fd5b506004361061004c5760003560e01c806306fdde03146100515780630bcd3b331461006f578063465a7ce314610077578063c47f00271461008c575b600080fd5b61005961009f565b604051610066919061064e565b60405180910390f35b61005961012d565b61008a6100853660046104ae565b610217565b005b61008a61009a36600461056c565b610368565b600080546100ac906106b1565b80601f01602080910402602001604051908101604052809291908181526020018280546100d8906106b1565b80156101255780601f106100fa57610100808354040283529160200191610125565b820191906000526020600020905b81548152906001019060200180831161010857829003601f168201915b505050505081565b60015460609060009067ffffffffffffffff81111561014e5761014e61072d565b6040519080825280601f01601f191660200182016040528015610178576020820181803683370190505b50905060005b600154811015610211576001818154811061019b5761019b610717565b90600052602060002090602091828204019190069054906101000a900460ff1660f81b8282815181106101d0576101d0610717565b60200101907effffffffffffffffffffffffffffffffffffffffffffffffffffffffffffff1916908160001a90535080610209816106e6565b91505061017e565b50919050565b805160015460009161022891610699565b67ffffffffffffffff8111156102405761024061072d565b604051908082528060200260200182016040528015610269578160200160208202803683370190505b50905060005b6001548110156102e2576001818154811061028c5761028c610717565b90600052602060002090602091828204019190069054906101000a900460ff168282815181106102be576102be610717565b60ff90921660209283029190910190910152806102da816106e6565b91505061026f565b5060005b825181101561034f5782818151811061030157610301610717565b6020026020010151828260018054905061031b9190610699565b8151811061032b5761032b610717565b60ff9092166020928302919091019091015280610347816106e6565b9150506102e6565b50805161036390600190602084019061037f565b505050565b805161037b906000906020840190610425565b5050565b82805482825590600052602060002090601f016020900481019282156104155791602002820160005b838211156103e657835183826101000a81548160ff021916908360ff16021790555092602001926001016020816000010492830192600103026103a8565b80156104135782816101000a81549060ff02191690556001016020816000010492830192600103026103e6565b505b50610421929150610499565b5090565b828054610431906106b1565b90600052602060002090601f0160209004810192826104535760008555610415565b82601f1061046c57805160ff1916838001178555610415565b82800160010185558215610415579182015b8281111561041557825182559160200191906001019061047e565b5b80821115610421576000815560010161049a565b600060208083850312156104c157600080fd5b823567ffffffffffffffff808211156104d957600080fd5b818501915085601f8301126104ed57600080fd5b8135818111156104ff576104ff61072d565b8060051b9150610510848301610668565b8181528481019084860184860187018a101561052b57600080fd5b600095508594505b8385101561055f57803560ff8116811461054b578687fd5b835260019490940193918601918601610533565b5098975050505050505050565b6000602080838503121561057f57600080fd5b823567ffffffffffffffff8082111561059757600080fd5b818501915085601f8301126105ab57600080fd5b8135818111156105bd576105bd61072d565b6105cf601f8201601f19168501610668565b915080825286848285010111156105e557600080fd5b8084840185840137600090820190930192909252509392505050565b6000815180845260005b818110156106275760208185018101518683018201520161060b565b81811115610639576000602083870101525b50601f01601f19169290920160200192915050565b6020815260006106616020830184610601565b9392505050565b604051601f8201601f1916810167ffffffffffffffff811182821017156106915761069161072d565b604052919050565b600082198211156106ac576106ac610701565b500190565b600181811c908216806106c557607f821691505b6020821081141561021157634e487b7160e01b600052602260045260246000fd5b60006000198214156106fa576106fa610701565b5060010190565b634e487b7160e01b600052601160045260246000fd5b634e487b7160e01b600052603260045260246000fd5b634e487b7160e01b600052604160045260246000fdfea164736f6c6343000806000a",
  "devdoc": {
    "kind": "dev",
    "methods": {},
    "version": 1
  },
  "userdoc": {
    "kind": "user",
    "methods": {},
    "version": 1
  },
  "storageLayout": {
    "storage": [
      {
        "astId": 7,
        "contract": "contracts/Storage.sol:Storage",
        "label": "name",
        "offset": 0,
        "slot": "0",
        "type": "t_string_storage"
      },
      {
        "astId": 10,
        "contract": "contracts/Storage.sol:Storage",
        "label": "_arrayBuffer",
        "offset": 0,
        "slot": "1",
        "type": "t_array(t_uint8)dyn_storage"
      }
    ],
    "types": {
      "t_array(t_uint8)dyn_storage": {
        "base": "t_uint8",
        "encoding": "dynamic_array",
        "label": "uint8[]",
        "numberOfBytes": "32"
      },
      "t_string_storage": {
        "encoding": "bytes",
        "label": "string",
        "numberOfBytes": "32"
      },
      "t_uint8": {
        "encoding": "inplace",
        "label": "uint8",
        "numberOfBytes": "1"
      }
    }
  }
}